{
  "_format": "hh3-artifact-1",
  "contractName": "ArcNameService",
  "sourceName": "contracts/ArcNameService.sol",
  "abi": [
    {
      "inputs": [],
      "stateMutability": "nonpayable",
      "type": "constructor"
    },
    {
      "inputs": [
        {
          "internalType": "address",
          "name": "sender",
          "type": "address"
        },
        {
          "internalType": "uint256",
          "name": "tokenId",
          "type": "uint256"
        },
        {
          "internalType": "address",
          "name": "owner",
          "type": "address"
        }
      ],
      "name": "ERC721IncorrectOwner",
      "type": "error"
    },
    {
      "inputs": [
        {
          "internalType": "address",
          "name": "operator",
          "type": "address"
        },
        {
          "internalType": "uint256",
          "name": "tokenId",
          "type": "uint256"
        }
      ],
      "name": "ERC721InsufficientApproval",
      "type": "error"
    },
    {
      "inputs": [
        {
          "internalType": "address",
          "name": "approver",
          "type": "address"
        }
      ],
      "name": "ERC721InvalidApprover",
      "type": "error"
    },
    {
      "inputs": [
        {
          "internalType": "address",
          "name": "operator",
          "type": "address"
        }
      ],
      "name": "ERC721InvalidOperator",
      "type": "error"
    },
    {
      "inputs": [
        {
          "internalType": "address",
          "name": "owner",
          "type": "address"
        }
      ],
      "name": "ERC721InvalidOwner",
      "type": "error"
    },
    {
      "inputs": [
        {
          "internalType": "address",
          "name": "receiver",
          "type": "address"
        }
      ],
      "name": "ERC721InvalidReceiver",
      "type": "error"
    },
    {
      "inputs": [
        {
          "internalType": "address",
          "name": "sender",
          "type": "address"
        }
      ],
      "name": "ERC721InvalidSender",
      "type": "error"
    },
    {
      "inputs": [
        {
          "internalType": "uint256",
          "name": "tokenId",
          "type": "uint256"
        }
      ],
      "name": "ERC721NonexistentToken",
      "type": "error"
    },
    {
      "inputs": [
        {
          "internalType": "address",
          "name": "owner",
          "type": "address"
        }
      ],
      "name": "OwnableInvalidOwner",
      "type": "error"
    },
    {
      "inputs": [
        {
          "internalType": "address",
          "name": "account",
          "type": "address"
        }
      ],
      "name": "OwnableUnauthorizedAccount",
      "type": "error"
    },
    {
      "anonymous": false,
      "inputs": [
        {
          "indexed": true,
          "internalType": "address",
          "name": "owner",
          "type": "address"
        },
        {
          "indexed": true,
          "internalType": "address",
          "name": "approved",
          "type": "address"
        },
        {
          "indexed": true,
          "internalType": "uint256",
          "name": "tokenId",
          "type": "uint256"
        }
      ],
      "name": "Approval",
      "type": "event"
    },
    {
      "anonymous": false,
      "inputs": [
        {
          "indexed": true,
          "internalType": "address",
          "name": "owner",
          "type": "address"
        },
        {
          "indexed": true,
          "internalType": "address",
          "name": "operator",
          "type": "address"
        },
        {
          "indexed": false,
          "internalType": "bool",
          "name": "approved",
          "type": "bool"
        }
      ],
      "name": "ApprovalForAll",
      "type": "event"
    },
    {
      "anonymous": false,
      "inputs": [
        {
          "indexed": true,
          "internalType": "address",
          "name": "owner",
          "type": "address"
        },
        {
          "indexed": false,
          "internalType": "string",
          "name": "name",
          "type": "string"
        },
        {
          "indexed": false,
          "internalType": "uint256",
          "name": "tokenId",
          "type": "uint256"
        },
        {
          "indexed": false,
          "internalType": "uint256",
          "name": "expiresAt",
          "type": "uint256"
        }
      ],
      "name": "NameRegistered",
      "type": "event"
    },
    {
      "anonymous": false,
      "inputs": [
        {
          "indexed": true,
          "internalType": "address",
          "name": "previousOwner",
          "type": "address"
        },
        {
          "indexed": true,
          "internalType": "address",
          "name": "newOwner",
          "type": "address"
        }
      ],
      "name": "OwnershipTransferred",
      "type": "event"
    },
    {
      "anonymous": false,
      "inputs": [
        {
          "indexed": true,
          "internalType": "address",
          "name": "from",
          "type": "address"
        },
        {
          "indexed": true,
          "internalType": "address",
          "name": "to",
          "type": "address"
        },
        {
          "indexed": true,
          "internalType": "uint256",
          "name": "tokenId",
          "type": "uint256"
        }
      ],
      "name": "Transfer",
      "type": "event"
    },
    {
      "inputs": [
        {
          "internalType": "address",
          "name": "to",
          "type": "address"
        },
        {
          "internalType": "uint256",
          "name": "tokenId",
          "type": "uint256"
        }
      ],
      "name": "approve",
      "outputs": [],
      "stateMutability": "nonpayable",
      "type": "function"
    },
    {
      "inputs": [
        {
          "internalType": "address",
          "name": "owner",
          "type": "address"
        }
      ],
      "name": "balanceOf",
      "outputs": [
        {
          "internalType": "uint256",
          "name": "",
          "type": "uint256"
        }
      ],
      "stateMutability": "view",
      "type": "function"
    },
    {
      "inputs": [
        {
          "internalType": "uint256",
          "name": "tokenId",
          "type": "uint256"
        }
      ],
      "name": "getApproved",
      "outputs": [
        {
          "internalType": "address",
          "name": "",
          "type": "address"
        }
      ],
      "stateMutability": "view",
      "type": "function"
    },
    {
      "inputs": [
        {
          "internalType": "address",
          "name": "owner",
          "type": "address"
        },
        {
          "internalType": "address",
          "name": "operator",
          "type": "address"
        }
      ],
      "name": "isApprovedForAll",
      "outputs": [
        {
          "internalType": "bool",
          "name": "",
          "type": "bool"
        }
      ],
      "stateMutability": "view",
      "type": "function"
    },
    {
      "inputs": [
        {
          "internalType": "string",
          "name": "name",
          "type": "string"
        }
      ],
      "name": "isAvailable",
      "outputs": [
        {
          "internalType": "bool",
          "name": "",
          "type": "bool"
        }
      ],
      "stateMutability": "view",
      "type": "function"
    },
    {
      "inputs": [],
      "name": "name",
      "outputs": [
        {
          "internalType": "string",
          "name": "",
          "type": "string"
        }
      ],
      "stateMutability": "view",
      "type": "function"
    },
    {
      "inputs": [
        {
          "internalType": "string",
          "name": "",
          "type": "string"
        }
      ],
      "name": "nameToTokenId",
      "outputs": [
        {
          "internalType": "uint256",
          "name": "",
          "type": "uint256"
        }
      ],
      "stateMutability": "view",
      "type": "function"
    },
    {
      "inputs": [],
      "name": "owner",
      "outputs": [
        {
          "internalType": "address",
          "name": "",
          "type": "address"
        }
      ],
      "stateMutability": "view",
      "type": "function"
    },
    {
      "inputs": [
        {
          "internalType": "uint256",
          "name": "tokenId",
          "type": "uint256"
        }
      ],
      "name": "ownerOf",
      "outputs": [
        {
          "internalType": "address",
          "name": "",
          "type": "address"
        }
      ],
      "stateMutability": "view",
      "type": "function"
    },
    {
      "inputs": [
        {
          "internalType": "uint256",
          "name": "",
          "type": "uint256"
        }
      ],
      "name": "records",
      "outputs": [
        {
          "internalType": "string",
          "name": "name",
          "type": "string"
        },
        {
          "internalType": "uint256",
          "name": "expiresAt",
          "type": "uint256"
        }
      ],
      "stateMutability": "view",
      "type": "function"
    },
    {
      "inputs": [
        {
          "internalType": "string",
          "name": "name",
          "type": "string"
        },
        {
          "internalType": "uint256",
          "name": "years_",
          "type": "uint256"
        }
      ],
      "name": "register",
      "outputs": [],
      "stateMutability": "nonpayable",
      "type": "function"
    },
    {
      "inputs": [],
      "name": "renounceOwnership",
      "outputs": [],
      "stateMutability": "nonpayable",
      "type": "function"
    },
    {
      "inputs": [
        {
          "internalType": "address",
          "name": "from",
          "type": "address"
        },
        {
          "internalType": "address",
          "name": "to",
          "type": "address"
        },
        {
          "internalType": "uint256",
          "name": "tokenId",
          "type": "uint256"
        }
      ],
      "name": "safeTransferFrom",
      "outputs": [],
      "stateMutability": "nonpayable",
      "type": "function"
    },
    {
      "inputs": [
        {
          "internalType": "address",
          "name": "from",
          "type": "address"
        },
        {
          "internalType": "address",
          "name": "to",
          "type": "address"
        },
        {
          "internalType": "uint256",
          "name": "tokenId",
          "type": "uint256"
        },
        {
          "internalType": "bytes",
          "name": "data",
          "type": "bytes"
        }
      ],
      "name": "safeTransferFrom",
      "outputs": [],
      "stateMutability": "nonpayable",
      "type": "function"
    },
    {
      "inputs": [
        {
          "internalType": "address",
          "name": "operator",
          "type": "address"
        },
        {
          "internalType": "bool",
          "name": "approved",
          "type": "bool"
        }
      ],
      "name": "setApprovalForAll",
      "outputs": [],
      "stateMutability": "nonpayable",
      "type": "function"
    },
    {
      "inputs": [
        {
          "internalType": "bytes4",
          "name": "interfaceId",
          "type": "bytes4"
        }
      ],
      "name": "supportsInterface",
      "outputs": [
        {
          "internalType": "bool",
          "name": "",
          "type": "bool"
        }
      ],
      "stateMutability": "view",
      "type": "function"
    },
    {
      "inputs": [],
      "name": "symbol",
      "outputs": [
        {
          "internalType": "string",
          "name": "",
          "type": "string"
        }
      ],
      "stateMutability": "view",
      "type": "function"
    },
    {
      "inputs": [
        {
          "internalType": "uint256",
          "name": "tokenId",
          "type": "uint256"
        }
      ],
      "name": "tokenURI",
      "outputs": [
        {
          "internalType": "string",
          "name": "",
          "type": "string"
        }
      ],
      "stateMutability": "view",
      "type": "function"
    },
    {
      "inputs": [
        {
          "internalType": "address",
          "name": "from",
          "type": "address"
        },
        {
          "internalType": "address",
          "name": "to",
          "type": "address"
        },
        {
          "internalType": "uint256",
          "name": "tokenId",
          "type": "uint256"
        }
      ],
      "name": "transferFrom",
      "outputs": [],
      "stateMutability": "nonpayable",
      "type": "function"
    },
    {
      "inputs": [
        {
          "internalType": "address",
          "name": "newOwner",
          "type": "address"
        }
      ],
      "name": "transferOwnership",
      "outputs": [],
      "stateMutability": "nonpayable",
      "type": "function"
    }
  ],
  "bytecode": "0x60806040526001600755348015610014575f5ffd5b50336040518060400160405280601081526020017f417263204e616d652053657276696365000000000000000000000000000000008152506040518060400160405280600581526020017f4152434e53000000000000000000000000000000000000000000000000000000815250815f90816100909190610428565b5080600190816100a09190610428565b5050505f73ffffffffffffffffffffffffffffffffffffffff168173ffffffffffffffffffffffffffffffffffffffff1603610113575f6040517f1e4fbdf700000000000000000000000000000000000000000000000000000000815260040161010a9190610536565b60405180910390fd5b6101228161012860201b60201c565b5061054f565b5f60065f9054906101000a900473ffffffffffffffffffffffffffffffffffffffff1690508160065f6101000a81548173ffffffffffffffffffffffffffffffffffffffff021916908373ffffffffffffffffffffffffffffffffffffffff1602179055508173ffffffffffffffffffffffffffffffffffffffff168173ffffffffffffffffffffffffffffffffffffffff167f8be0079c531659141344cd1fd0a4f28419497f9722a3daafe3b4186f6b6457e060405160405180910390a35050565b5f81519050919050565b7f4e487b71000000000000000000000000000000000000000000000000000000005f52604160045260245ffd5b7f4e487b71000000000000000000000000000000000000000000000000000000005f52602260045260245ffd5b5f600282049050600182168061026657607f821691505b60208210810361027957610278610222565b5b50919050565b5f819050815f5260205f209050919050565b5f6020601f8301049050919050565b5f82821b905092915050565b5f600883026102db7fffffffffffffffffffffffffffffffffffffffffffffffffffffffffffffffff826102a0565b6102e586836102a0565b95508019841693508086168417925050509392505050565b5f819050919050565b5f819050919050565b5f61032961032461031f846102fd565b610306565b6102fd565b9050919050565b5f819050919050565b6103428361030f565b61035661034e82610330565b8484546102ac565b825550505050565b5f5f905090565b61036d61035e565b610378818484610339565b505050565b5b8181101561039b576103905f82610365565b60018101905061037e565b5050565b601f8211156103e0576103b18161027f565b6103ba84610291565b810160208510156103c9578190505b6103dd6103d585610291565b83018261037d565b50505b505050565b5f82821c905092915050565b5f6104005f19846008026103e5565b1980831691505092915050565b5f61041883836103f1565b9150826002028217905092915050565b610431826101eb565b67ffffffffffffffff81111561044a576104496101f5565b5b610454825461024f565b61045f82828561039f565b5f60209050601f831160018114610490575f841561047e578287015190505b610488858261040d565b8655506104ef565b601f19841661049e8661027f565b5f5b828110156104c5578489015182556001820191506020850194506020810190506104a0565b868310156104e257848901516104de601f8916826103f1565b8355505b6001600288020188555050505b505050505050565b5f73ffffffffffffffffffffffffffffffffffffffff82169050919050565b5f610520826104f7565b9050919050565b61053081610516565b82525050565b5f6020820190506105495f830184610527565b92915050565b612a158061055c5f395ff3fe608060405234801561000f575f5ffd5b506004361061012a575f3560e01c80638da5cb5b116100ab578063c87b56dd1161006f578063c87b56dd1461033f578063dd0012541461036f578063e985e9c51461039f578063ea87152b146103cf578063f2fde38b146103eb5761012a565b80638da5cb5b1461029b57806395d89b41146102b9578063965306aa146102d7578063a22cb46514610307578063b88d4fde146103235761012a565b806334461067116100f257806334461067146101e457806342842e0e146102155780636352211e1461023157806370a0823114610261578063715018a6146102915761012a565b806301ffc9a71461012e57806306fdde031461015e578063081812fc1461017c578063095ea7b3146101ac57806323b872dd146101c8575b5f5ffd5b61014860048036038101906101439190611c72565b610407565b6040516101559190611cb7565b60405180910390f35b6101666104e8565b6040516101739190611d40565b60405180910390f35b61019660048036038101906101919190611d93565b610577565b6040516101a39190611dfd565b60405180910390f35b6101c660048036038101906101c19190611e40565b610592565b005b6101e260048036038101906101dd9190611e7e565b6105a8565b005b6101fe60048036038101906101f99190611d93565b6106a7565b60405161020c929190611edd565b60405180910390f35b61022f600480360381019061022a9190611e7e565b61074d565b005b61024b60048036038101906102469190611d93565b61076c565b6040516102589190611dfd565b60405180910390f35b61027b60048036038101906102769190611f0b565b61077d565b6040516102889190611f36565b60405180910390f35b610299610833565b005b6102a3610846565b6040516102b09190611dfd565b60405180910390f35b6102c161086e565b6040516102ce9190611d40565b60405180910390f35b6102f160048036038101906102ec919061207b565b6108fe565b6040516102fe9190611cb7565b60405180910390f35b610321600480360381019061031c91906120ec565b610952565b005b61033d600480360381019061033891906121c8565b610968565b005b61035960048036038101906103549190611d93565b61098d565b6040516103669190611d40565b60405180910390f35b6103896004803603810190610384919061207b565b6109f3565b6040516103969190611f36565b60405180910390f35b6103b960048036038101906103b49190612248565b610a20565b6040516103c69190611cb7565b60405180910390f35b6103e960048036038101906103e49190612286565b610aae565b005b61040560048036038101906104009190611f0b565b610c8e565b005b5f7f80ac58cd000000000000000000000000000000000000000000000000000000007bffffffffffffffffffffffffffffffffffffffffffffffffffffffff1916827bffffffffffffffffffffffffffffffffffffffffffffffffffffffff191614806104d157507f5b5e139f000000000000000000000000000000000000000000000000000000007bffffffffffffffffffffffffffffffffffffffffffffffffffffffff1916827bffffffffffffffffffffffffffffffffffffffffffffffffffffffff1916145b806104e157506104e082610d12565b5b9050919050565b60605f80546104f69061230d565b80601f01602080910402602001604051908101604052809291908181526020018280546105229061230d565b801561056d5780601f106105445761010080835404028352916020019161056d565b820191905f5260205f20905b81548152906001019060200180831161055057829003601f168201915b5050505050905090565b5f61058182610d7b565b5061058b82610e01565b9050919050565b6105a4828261059f610e3a565b610e41565b5050565b5f73ffffffffffffffffffffffffffffffffffffffff168273ffffffffffffffffffffffffffffffffffffffff1603610618575f6040517f64a0ae9200000000000000000000000000000000000000000000000000000000815260040161060f9190611dfd565b60405180910390fd5b5f61062b8383610626610e3a565b610e53565b90508373ffffffffffffffffffffffffffffffffffffffff168173ffffffffffffffffffffffffffffffffffffffff16146106a1578382826040517f64283d7b0000000000000000000000000000000000000000000000000000000081526004016106989392919061233d565b60405180910390fd5b50505050565b6009602052805f5260405f205f91509050805f0180546106c69061230d565b80601f01602080910402602001604051908101604052809291908181526020018280546106f29061230d565b801561073d5780601f106107145761010080835404028352916020019161073d565b820191905f5260205f20905b81548152906001019060200180831161072057829003601f168201915b5050505050908060010154905082565b61076783838360405180602001604052805f815250610968565b505050565b5f61077682610d7b565b9050919050565b5f5f73ffffffffffffffffffffffffffffffffffffffff168273ffffffffffffffffffffffffffffffffffffffff16036107ee575f6040517f89c62b640000000000000000000000000000000000000000000000000000000081526004016107e59190611dfd565b60405180910390fd5b60035f8373ffffffffffffffffffffffffffffffffffffffff1673ffffffffffffffffffffffffffffffffffffffff1681526020019081526020015f20549050919050565b61083b61105e565b6108445f6110e5565b565b5f60065f9054906101000a900473ffffffffffffffffffffffffffffffffffffffff16905090565b60606001805461087d9061230d565b80601f01602080910402602001604051908101604052809291908181526020018280546108a99061230d565b80156108f45780601f106108cb576101008083540402835291602001916108f4565b820191905f5260205f20905b8154815290600101906020018083116108d757829003601f168201915b5050505050905090565b5f5f60088360405161091091906123ac565b90815260200160405180910390205490505f810361093257600191505061094d565b4260095f8381526020019081526020015f2060010154109150505b919050565b61096461095d610e3a565b83836111a8565b5050565b6109738484846105a8565b61098761097e610e3a565b85858585611381565b50505050565b606061099882610d7b565b505f6109a261152d565b90505f8151116109c05760405180602001604052805f8152506109eb565b806109ca84611543565b6040516020016109db9291906123c2565b6040516020818303038152906040525b915050919050565b6008818051602081018201805184825260208301602085012081835280955050505050505f915090505481565b5f60055f8473ffffffffffffffffffffffffffffffffffffffff1673ffffffffffffffffffffffffffffffffffffffff1681526020019081526020015f205f8373ffffffffffffffffffffffffffffffffffffffff1673ffffffffffffffffffffffffffffffffffffffff1681526020019081526020015f205f9054906101000a900460ff16905092915050565b6002825111610af2576040517f08c379a0000000000000000000000000000000000000000000000000000000008152600401610ae99061242f565b60405180910390fd5b60018110158015610b04575060058111155b610b43576040517f08c379a0000000000000000000000000000000000000000000000000000000008152600401610b3a90612497565b60405180910390fd5b610b4c826108fe565b610b8b576040517f08c379a0000000000000000000000000000000000000000000000000000000008152600401610b82906124ff565b60405180910390fd5b5f60075f815480929190610b9e9061254a565b9190505590505f6301e1338083610bb59190612591565b42610bc091906125d2565b9050610bcc338361160d565b60405180604001604052808581526020018281525060095f8481526020019081526020015f205f820151815f019081610c0591906127a5565b506020820151816001015590505081600885604051610c2491906123ac565b9081526020016040518091039020819055503373ffffffffffffffffffffffffffffffffffffffff167f79313b19d60f4a095e874d4d1925b15fb9ff53d08cfe709a9ff3d6ec5ae313c6858484604051610c8093929190612874565b60405180910390a250505050565b610c9661105e565b5f73ffffffffffffffffffffffffffffffffffffffff168173ffffffffffffffffffffffffffffffffffffffff1603610d06575f6040517f1e4fbdf7000000000000000000000000000000000000000000000000000000008152600401610cfd9190611dfd565b60405180910390fd5b610d0f816110e5565b50565b5f7f01ffc9a7000000000000000000000000000000000000000000000000000000007bffffffffffffffffffffffffffffffffffffffffffffffffffffffff1916827bffffffffffffffffffffffffffffffffffffffffffffffffffffffff1916149050919050565b5f5f610d868361162a565b90505f73ffffffffffffffffffffffffffffffffffffffff168173ffffffffffffffffffffffffffffffffffffffff1603610df857826040517f7e273289000000000000000000000000000000000000000000000000000000008152600401610def9190611f36565b60405180910390fd5b80915050919050565b5f60045f8381526020019081526020015f205f9054906101000a900473ffffffffffffffffffffffffffffffffffffffff169050919050565b5f33905090565b610e4e8383836001611663565b505050565b5f5f610e5e8461162a565b90505f73ffffffffffffffffffffffffffffffffffffffff168373ffffffffffffffffffffffffffffffffffffffff1614610e9f57610e9e818486611822565b5b5f73ffffffffffffffffffffffffffffffffffffffff168173ffffffffffffffffffffffffffffffffffffffff1614610f2a57610ede5f855f5f611663565b600160035f8373ffffffffffffffffffffffffffffffffffffffff1673ffffffffffffffffffffffffffffffffffffffff1681526020019081526020015f205f82825403925050819055505b5f73ffffffffffffffffffffffffffffffffffffffff168573ffffffffffffffffffffffffffffffffffffffff1614610fa957600160035f8773ffffffffffffffffffffffffffffffffffffffff1673ffffffffffffffffffffffffffffffffffffffff1681526020019081526020015f205f82825401925050819055505b8460025f8681526020019081526020015f205f6101000a81548173ffffffffffffffffffffffffffffffffffffffff021916908373ffffffffffffffffffffffffffffffffffffffff160217905550838573ffffffffffffffffffffffffffffffffffffffff168273ffffffffffffffffffffffffffffffffffffffff167fddf252ad1be2c89b69c2b068fc378daa952ba7f163c4a11628f55a4df523b3ef60405160405180910390a4809150509392505050565b611066610e3a565b73ffffffffffffffffffffffffffffffffffffffff16611084610846565b73ffffffffffffffffffffffffffffffffffffffff16146110e3576110a7610e3a565b6040517f118cdaa70000000000000000000000000000000000000000000000000000000081526004016110da9190611dfd565b60405180910390fd5b565b5f60065f9054906101000a900473ffffffffffffffffffffffffffffffffffffffff1690508160065f6101000a81548173ffffffffffffffffffffffffffffffffffffffff021916908373ffffffffffffffffffffffffffffffffffffffff1602179055508173ffffffffffffffffffffffffffffffffffffffff168173ffffffffffffffffffffffffffffffffffffffff167f8be0079c531659141344cd1fd0a4f28419497f9722a3daafe3b4186f6b6457e060405160405180910390a35050565b5f73ffffffffffffffffffffffffffffffffffffffff168373ffffffffffffffffffffffffffffffffffffffff1603611218575f6040517fa9fbf51f00000000000000000000000000000000000000000000000000000000815260040161120f9190611dfd565b60405180910390fd5b5f73ffffffffffffffffffffffffffffffffffffffff168273ffffffffffffffffffffffffffffffffffffffff160361128857816040517f5b08ba1800000000000000000000000000000000000000000000000000000000815260040161127f9190611dfd565b60405180910390fd5b8060055f8573ffffffffffffffffffffffffffffffffffffffff1673ffffffffffffffffffffffffffffffffffffffff1681526020019081526020015f205f8473ffffffffffffffffffffffffffffffffffffffff1673ffffffffffffffffffffffffffffffffffffffff1681526020019081526020015f205f6101000a81548160ff0219169083151502179055508173ffffffffffffffffffffffffffffffffffffffff168373ffffffffffffffffffffffffffffffffffffffff167f17307eab39ab6107e8899845ad3d59bd9653f200f220920489ca2b5937696c31836040516113749190611cb7565b60405180910390a3505050565b5f8373ffffffffffffffffffffffffffffffffffffffff163b1115611526578273ffffffffffffffffffffffffffffffffffffffff1663150b7a02868685856040518563ffffffff1660e01b81526004016113df9493929190612902565b6020604051808303815f875af192505050801561141a57506040513d601f19601f820116820180604052508101906114179190612960565b60015b61149b573d805f8114611448576040519150601f19603f3d011682016040523d82523d5f602084013e61144d565b606091505b505f81510361149357836040517f64a0ae9200000000000000000000000000000000000000000000000000000000815260040161148a9190611dfd565b60405180910390fd5b805160208201fd5b63150b7a0260e01b7bffffffffffffffffffffffffffffffffffffffffffffffffffffffff1916817bffffffffffffffffffffffffffffffffffffffffffffffffffffffff19161461152457836040517f64a0ae9200000000000000000000000000000000000000000000000000000000815260040161151b9190611dfd565b60405180910390fd5b505b5050505050565b606060405180602001604052805f815250905090565b60605f6001611551846118e5565b0190505f8167ffffffffffffffff81111561156f5761156e611f57565b5b6040519080825280601f01601f1916602001820160405280156115a15781602001600182028036833780820191505090505b5090505f82602083010190505b600115611602578080600190039150507f3031323334353637383961626364656600000000000000000000000000000000600a86061a8153600a85816115f7576115f661298b565b5b0494505f85036115ae575b819350505050919050565b611626828260405180602001604052805f815250611a36565b5050565b5f60025f8381526020019081526020015f205f9054906101000a900473ffffffffffffffffffffffffffffffffffffffff169050919050565b808061169b57505f73ffffffffffffffffffffffffffffffffffffffff168273ffffffffffffffffffffffffffffffffffffffff1614155b156117cd575f6116aa84610d7b565b90505f73ffffffffffffffffffffffffffffffffffffffff168373ffffffffffffffffffffffffffffffffffffffff161415801561171457508273ffffffffffffffffffffffffffffffffffffffff168173ffffffffffffffffffffffffffffffffffffffff1614155b801561172757506117258184610a20565b155b1561176957826040517fa9fbf51f0000000000000000000000000000000000000000000000000000000081526004016117609190611dfd565b60405180910390fd5b81156117cb57838573ffffffffffffffffffffffffffffffffffffffff168273ffffffffffffffffffffffffffffffffffffffff167f8c5be1e5ebec7d5bd14f71427d1e84f3dd0314c0f7b2291e5b200ac8c7c3b92560405160405180910390a45b505b8360045f8581526020019081526020015f205f6101000a81548173ffffffffffffffffffffffffffffffffffffffff021916908373ffffffffffffffffffffffffffffffffffffffff16021790555050505050565b61182d838383611a59565b6118e0575f73ffffffffffffffffffffffffffffffffffffffff168373ffffffffffffffffffffffffffffffffffffffff16036118a157806040517f7e2732890000000000000000000000000000000000000000000000000000000081526004016118989190611f36565b60405180910390fd5b81816040517f177e802f0000000000000000000000000000000000000000000000000000000081526004016118d79291906129b8565b60405180910390fd5b505050565b5f5f5f90507a184f03e93ff9f4daa797ed6e38ed64bf6a1f0100000000000000008310611941577a184f03e93ff9f4daa797ed6e38ed64bf6a1f01000000000000000083816119375761193661298b565b5b0492506040810190505b6d04ee2d6d415b85acef8100000000831061197e576d04ee2d6d415b85acef810000000083816119745761197361298b565b5b0492506020810190505b662386f26fc1000083106119ad57662386f26fc1000083816119a3576119a261298b565b5b0492506010810190505b6305f5e10083106119d6576305f5e10083816119cc576119cb61298b565b5b0492506008810190505b61271083106119fb5761271083816119f1576119f061298b565b5b0492506004810190505b60648310611a1e5760648381611a1457611a1361298b565b5b0492506002810190505b600a8310611a2d576001810190505b80915050919050565b611a408383611b19565b611a54611a4b610e3a565b5f858585611381565b505050565b5f5f73ffffffffffffffffffffffffffffffffffffffff168373ffffffffffffffffffffffffffffffffffffffff1614158015611b1057508273ffffffffffffffffffffffffffffffffffffffff168473ffffffffffffffffffffffffffffffffffffffff161480611ad15750611ad08484610a20565b5b80611b0f57508273ffffffffffffffffffffffffffffffffffffffff16611af783610e01565b73ffffffffffffffffffffffffffffffffffffffff16145b5b90509392505050565b5f73ffffffffffffffffffffffffffffffffffffffff168273ffffffffffffffffffffffffffffffffffffffff1603611b89575f6040517f64a0ae92000000000000000000000000000000000000000000000000000000008152600401611b809190611dfd565b60405180910390fd5b5f611b9583835f610e53565b90505f73ffffffffffffffffffffffffffffffffffffffff168173ffffffffffffffffffffffffffffffffffffffff1614611c07575f6040517f73c6ac6e000000000000000000000000000000000000000000000000000000008152600401611bfe9190611dfd565b60405180910390fd5b505050565b5f604051905090565b5f5ffd5b5f5ffd5b5f7fffffffff0000000000000000000000000000000000000000000000000000000082169050919050565b611c5181611c1d565b8114611c5b575f5ffd5b50565b5f81359050611c6c81611c48565b92915050565b5f60208284031215611c8757611c86611c15565b5b5f611c9484828501611c5e565b91505092915050565b5f8115159050919050565b611cb181611c9d565b82525050565b5f602082019050611cca5f830184611ca8565b92915050565b5f81519050919050565b5f82825260208201905092915050565b8281835e5f83830152505050565b5f601f19601f8301169050919050565b5f611d1282611cd0565b611d1c8185611cda565b9350611d2c818560208601611cea565b611d3581611cf8565b840191505092915050565b5f6020820190508181035f830152611d588184611d08565b905092915050565b5f819050919050565b611d7281611d60565b8114611d7c575f5ffd5b50565b5f81359050611d8d81611d69565b92915050565b5f60208284031215611da857611da7611c15565b5b5f611db584828501611d7f565b91505092915050565b5f73ffffffffffffffffffffffffffffffffffffffff82169050919050565b5f611de782611dbe565b9050919050565b611df781611ddd565b82525050565b5f602082019050611e105f830184611dee565b92915050565b611e1f81611ddd565b8114611e29575f5ffd5b50565b5f81359050611e3a81611e16565b92915050565b5f5f60408385031215611e5657611e55611c15565b5b5f611e6385828601611e2c565b9250506020611e7485828601611d7f565b9150509250929050565b5f5f5f60608486031215611e9557611e94611c15565b5b5f611ea286828701611e2c565b9350506020611eb386828701611e2c565b9250506040611ec486828701611d7f565b9150509250925092565b611ed781611d60565b82525050565b5f6040820190508181035f830152611ef58185611d08565b9050611f046020830184611ece565b9392505050565b5f60208284031215611f2057611f1f611c15565b5b5f611f2d84828501611e2c565b91505092915050565b5f602082019050611f495f830184611ece565b92915050565b5f5ffd5b5f5ffd5b7f4e487b71000000000000000000000000000000000000000000000000000000005f52604160045260245ffd5b611f8d82611cf8565b810181811067ffffffffffffffff82111715611fac57611fab611f57565b5b80604052505050565b5f611fbe611c0c565b9050611fca8282611f84565b919050565b5f67ffffffffffffffff821115611fe957611fe8611f57565b5b611ff282611cf8565b9050602081019050919050565b828183375f83830152505050565b5f61201f61201a84611fcf565b611fb5565b90508281526020810184848401111561203b5761203a611f53565b5b612046848285611fff565b509392505050565b5f82601f83011261206257612061611f4f565b5b813561207284826020860161200d565b91505092915050565b5f602082840312156120905761208f611c15565b5b5f82013567ffffffffffffffff8111156120ad576120ac611c19565b5b6120b98482850161204e565b91505092915050565b6120cb81611c9d565b81146120d5575f5ffd5b50565b5f813590506120e6816120c2565b92915050565b5f5f6040838503121561210257612101611c15565b5b5f61210f85828601611e2c565b9250506020612120858286016120d8565b9150509250929050565b5f67ffffffffffffffff82111561214457612143611f57565b5b61214d82611cf8565b9050602081019050919050565b5f61216c6121678461212a565b611fb5565b90508281526020810184848401111561218857612187611f53565b5b612193848285611fff565b509392505050565b5f82601f8301126121af576121ae611f4f565b5b81356121bf84826020860161215a565b91505092915050565b5f5f5f5f608085870312156121e0576121df611c15565b5b5f6121ed87828801611e2c565b94505060206121fe87828801611e2c565b935050604061220f87828801611d7f565b925050606085013567ffffffffffffffff8111156122305761222f611c19565b5b61223c8782880161219b565b91505092959194509250565b5f5f6040838503121561225e5761225d611c15565b5b5f61226b85828601611e2c565b925050602061227c85828601611e2c565b9150509250929050565b5f5f6040838503121561229c5761229b611c15565b5b5f83013567ffffffffffffffff8111156122b9576122b8611c19565b5b6122c58582860161204e565b92505060206122d685828601611d7f565b9150509250929050565b7f4e487b71000000000000000000000000000000000000000000000000000000005f52602260045260245ffd5b5f600282049050600182168061232457607f821691505b602082108103612337576123366122e0565b5b50919050565b5f6060820190506123505f830186611dee565b61235d6020830185611ece565b61236a6040830184611dee565b949350505050565b5f81905092915050565b5f61238682611cd0565b6123908185612372565b93506123a0818560208601611cea565b80840191505092915050565b5f6123b7828461237c565b915081905092915050565b5f6123cd828561237c565b91506123d9828461237c565b91508190509392505050565b7f496e76616c6964206e616d6500000000000000000000000000000000000000005f82015250565b5f612419600c83611cda565b9150612424826123e5565b602082019050919050565b5f6020820190508181035f8301526124468161240d565b9050919050565b7f496e76616c696420706572696f640000000000000000000000000000000000005f82015250565b5f612481600e83611cda565b915061248c8261244d565b602082019050919050565b5f6020820190508181035f8301526124ae81612475565b9050919050565b7f4e616d6520616c726561647920726567697374657265640000000000000000005f82015250565b5f6124e9601783611cda565b91506124f4826124b5565b602082019050919050565b5f6020820190508181035f830152612516816124dd565b9050919050565b7f4e487b71000000000000000000000000000000000000000000000000000000005f52601160045260245ffd5b5f61255482611d60565b91507fffffffffffffffffffffffffffffffffffffffffffffffffffffffffffffffff82036125865761258561251d565b5b600182019050919050565b5f61259b82611d60565b91506125a683611d60565b92508282026125b481611d60565b915082820484148315176125cb576125ca61251d565b5b5092915050565b5f6125dc82611d60565b91506125e783611d60565b92508282019050808211156125ff576125fe61251d565b5b92915050565b5f819050815f5260205f209050919050565b5f6020601f8301049050919050565b5f82821b905092915050565b5f600883026126617fffffffffffffffffffffffffffffffffffffffffffffffffffffffffffffffff82612626565b61266b8683612626565b95508019841693508086168417925050509392505050565b5f819050919050565b5f6126a66126a161269c84611d60565b612683565b611d60565b9050919050565b5f819050919050565b6126bf8361268c565b6126d36126cb826126ad565b848454612632565b825550505050565b5f5f905090565b6126ea6126db565b6126f58184846126b6565b505050565b5b818110156127185761270d5f826126e2565b6001810190506126fb565b5050565b601f82111561275d5761272e81612605565b61273784612617565b81016020851015612746578190505b61275a61275285612617565b8301826126fa565b50505b505050565b5f82821c905092915050565b5f61277d5f1984600802612762565b1980831691505092915050565b5f612795838361276e565b9150826002028217905092915050565b6127ae82611cd0565b67ffffffffffffffff8111156127c7576127c6611f57565b5b6127d1825461230d565b6127dc82828561271c565b5f60209050601f83116001811461280d575f84156127fb578287015190505b612805858261278a565b86555061286c565b601f19841661281b86612605565b5f5b828110156128425784890151825560018201915060208501945060208101905061281d565b8683101561285f578489015161285b601f89168261276e565b8355505b6001600288020188555050505b505050505050565b5f6060820190508181035f83015261288c8186611d08565b905061289b6020830185611ece565b6128a86040830184611ece565b949350505050565b5f81519050919050565b5f82825260208201905092915050565b5f6128d4826128b0565b6128de81856128ba565b93506128ee818560208601611cea565b6128f781611cf8565b840191505092915050565b5f6080820190506129155f830187611dee565b6129226020830186611dee565b61292f6040830185611ece565b818103606083015261294181846128ca565b905095945050505050565b5f8151905061295a81611c48565b92915050565b5f6020828403121561297557612974611c15565b5b5f6129828482850161294c565b91505092915050565b7f4e487b71000000000000000000000000000000000000000000000000000000005f52601260045260245ffd5b5f6040820190506129cb5f830185611dee565b6129d86020830184611ece565b939250505056fea2646970667358221220b7cd0c5872d07fe3dc4b8312a475d004aa187fe2dcd13242d0ada63b81fc69c064736f6c634300081c0033",
  "linkReferences": {},
  "deployedLinkReferences": {},
  "immutableReferences": {},
  "inputSourceName": "project/contracts/ArcNameService.sol",
  "buildInfoId": "solc-0_8_28-bff9faa5435ba82b0cc22bcf61aeaac9f4936989"
}