{
  "_format": "hh3-artifact-1",
  "contractName": "PriceManager",
  "sourceName": "contracts/PriceManager.sol",
  "abi": [
    {
      "inputs": [
        {
          "internalType": "address",
          "name": "owner",
          "type": "address"
        }
      ],
      "stateMutability": "nonpayable",
      "type": "constructor"
    },
    {
      "inputs": [
        {
          "internalType": "address",
          "name": "owner",
          "type": "address"
        }
      ],
      "name": "OwnableInvalidOwner",
      "type": "error"
    },
    {
      "inputs": [
        {
          "internalType": "address",
          "name": "account",
          "type": "address"
        }
      ],
      "name": "OwnableUnauthorizedAccount",
      "type": "error"
    },
    {
      "anonymous": false,
      "inputs": [
        {
          "indexed": true,
          "internalType": "address",
          "name": "previousOwner",
          "type": "address"
        },
        {
          "indexed": true,
          "internalType": "address",
          "name": "newOwner",
          "type": "address"
        }
      ],
      "name": "OwnershipTransferred",
      "type": "event"
    },
    {
      "anonymous": false,
      "inputs": [
        {
          "indexed": true,
          "internalType": "bytes32",
          "name": "key",
          "type": "bytes32"
        },
        {
          "indexed": false,
          "internalType": "uint256",
          "name": "price",
          "type": "uint256"
        }
      ],
      "name": "PriceUpdated",
      "type": "event"
    },
    {
      "inputs": [
        {
          "internalType": "bytes32",
          "name": "key",
          "type": "bytes32"
        }
      ],
      "name": "getPrice",
      "outputs": [
        {
          "internalType": "uint256",
          "name": "",
          "type": "uint256"
        }
      ],
      "stateMutability": "view",
      "type": "function"
    },
    {
      "inputs": [],
      "name": "owner",
      "outputs": [
        {
          "internalType": "address",
          "name": "",
          "type": "address"
        }
      ],
      "stateMutability": "view",
      "type": "function"
    },
    {
      "inputs": [],
      "name": "renounceOwnership",
      "outputs": [],
      "stateMutability": "nonpayable",
      "type": "function"
    },
    {
      "inputs": [
        {
          "internalType": "bytes32",
          "name": "key",
          "type": "bytes32"
        },
        {
          "internalType": "uint256",
          "name": "price",
          "type": "uint256"
        }
      ],
      "name": "setPrice",
      "outputs": [],
      "stateMutability": "nonpayable",
      "type": "function"
    },
    {
      "inputs": [
        {
          "internalType": "address",
          "name": "newOwner",
          "type": "address"
        }
      ],
      "name": "transferOwnership",
      "outputs": [],
      "stateMutability": "nonpayable",
      "type": "function"
    }
  ],
  "bytecode": "0x608060405234801561000f575f5ffd5b506040516109473803806109478339818101604052810190610031919061039f565b805f73ffffffffffffffffffffffffffffffffffffffff168173ffffffffffffffffffffffffffffffffffffffff16036100a2575f6040517f1e4fbdf700000000000000000000000000000000000000000000000000000000815260040161009991906103d9565b60405180910390fd5b6100b18161028060201b60201c565b50621e848060015f7f71e86d75bfbf097cad987250830680fc4cdcf66caf2c1a7d15d93145904bae1c81526020019081526020015f2081905550623567e060015f7fb3140231abdd32f3b7242b7a48a98a48a526f0fc74ad5f7db4bb11f1fe67336581526020019081526020015f208190555062493e0060015f7fa4add1ae9120c4ba1debd07045e602b170924243ede03a8e6d5b92d0264525dc81526020019081526020015f20819055506258804060015f7f4e0e2bb7fed58d2a653628e0dd3550a2a64a0d8d745b5ec0d75a668c05c226cd81526020019081526020015f208190555062632ea060015f7f87878d476b9a4b41eb7d53807f6b22881c39c972dee360e0c1ffa54b943ebf8f81526020019081526020015f2081905550620f424060015f7f5eaa4f957b6eed2be51176d1e4bb0522d16462550ca34f4a58719b3d46ad1f0481526020019081526020015f20819055506216e36060015f7f133cd580d4df2fb635e2bf080473dea6b63317b8ae68d88fe6c179a64cbda59281526020019081526020015f2081905550621e848060015f7f95abf1dcf130f4da1e492a6d9ff3e3a3bc77ddf04eb71aa6b320dec582d53fa481526020019081526020015f2081905550506103f2565b5f5f5f9054906101000a900473ffffffffffffffffffffffffffffffffffffffff169050815f5f6101000a81548173ffffffffffffffffffffffffffffffffffffffff021916908373ffffffffffffffffffffffffffffffffffffffff1602179055508173ffffffffffffffffffffffffffffffffffffffff168173ffffffffffffffffffffffffffffffffffffffff167f8be0079c531659141344cd1fd0a4f28419497f9722a3daafe3b4186f6b6457e060405160405180910390a35050565b5f5ffd5b5f73ffffffffffffffffffffffffffffffffffffffff82169050919050565b5f61036e82610345565b9050919050565b61037e81610364565b8114610388575f5ffd5b50565b5f8151905061039981610375565b92915050565b5f602082840312156103b4576103b3610341565b5b5f6103c18482850161038b565b91505092915050565b6103d381610364565b82525050565b5f6020820190506103ec5f8301846103ca565b92915050565b610548806103ff5f395ff3fe608060405234801561000f575f5ffd5b5060043610610055575f3560e01c806310d8d74d1461005957806331d98b3f14610075578063715018a6146100a55780638da5cb5b146100af578063f2fde38b146100cd575b5f5ffd5b610073600480360381019061006e91906103d4565b6100e9565b005b61008f600480360381019061008a9190610412565b610143565b60405161009c919061044c565b60405180910390f35b6100ad61015d565b005b6100b7610170565b6040516100c491906104a4565b60405180910390f35b6100e760048036038101906100e291906104e7565b610197565b005b6100f161021b565b8060015f8481526020019081526020015f2081905550817f46eec4e0eeeef5830de3472bb39db7e52b1c809286dc87c4b85b20e003cc70c382604051610137919061044c565b60405180910390a25050565b5f60015f8381526020019081526020015f20549050919050565b61016561021b565b61016e5f6102a2565b565b5f5f5f9054906101000a900473ffffffffffffffffffffffffffffffffffffffff16905090565b61019f61021b565b5f73ffffffffffffffffffffffffffffffffffffffff168173ffffffffffffffffffffffffffffffffffffffff160361020f575f6040517f1e4fbdf700000000000000000000000000000000000000000000000000000000815260040161020691906104a4565b60405180910390fd5b610218816102a2565b50565b610223610363565b73ffffffffffffffffffffffffffffffffffffffff16610241610170565b73ffffffffffffffffffffffffffffffffffffffff16146102a057610264610363565b6040517f118cdaa700000000000000000000000000000000000000000000000000000000815260040161029791906104a4565b60405180910390fd5b565b5f5f5f9054906101000a900473ffffffffffffffffffffffffffffffffffffffff169050815f5f6101000a81548173ffffffffffffffffffffffffffffffffffffffff021916908373ffffffffffffffffffffffffffffffffffffffff1602179055508173ffffffffffffffffffffffffffffffffffffffff168173ffffffffffffffffffffffffffffffffffffffff167f8be0079c531659141344cd1fd0a4f28419497f9722a3daafe3b4186f6b6457e060405160405180910390a35050565b5f33905090565b5f5ffd5b5f819050919050565b6103808161036e565b811461038a575f5ffd5b50565b5f8135905061039b81610377565b92915050565b5f819050919050565b6103b3816103a1565b81146103bd575f5ffd5b50565b5f813590506103ce816103aa565b92915050565b5f5f604083850312156103ea576103e961036a565b5b5f6103f78582860161038d565b9250506020610408858286016103c0565b9150509250929050565b5f602082840312156104275761042661036a565b5b5f6104348482850161038d565b91505092915050565b610446816103a1565b82525050565b5f60208201905061045f5f83018461043d565b92915050565b5f73ffffffffffffffffffffffffffffffffffffffff82169050919050565b5f61048e82610465565b9050919050565b61049e81610484565b82525050565b5f6020820190506104b75f830184610495565b92915050565b6104c681610484565b81146104d0575f5ffd5b50565b5f813590506104e1816104bd565b92915050565b5f602082840312156104fc576104fb61036a565b5b5f610509848285016104d3565b9150509291505056fea2646970667358221220e4db71a6022cfbf1f8119c11431357a5c4adcf246636dea29fd74e0eb860fd3b64736f6c634300081c0033",
  "linkReferences": {},
  "deployedLinkReferences": {},
  "immutableReferences": {},
  "inputSourceName": "project/contracts/PriceManager.sol",
  "buildInfoId": "solc-0_8_28-a86ffdec4f0cd76f18da56198526c9c73b7300e1"
}