{
  "_format": "hh3-artifact-1",
  "contractName": "Treasury",
  "sourceName": "contracts/Treasury.sol",
  "abi": [
    {
      "inputs": [
        {
          "internalType": "address",
          "name": "owner",
          "type": "address"
        }
      ],
      "stateMutability": "nonpayable",
      "type": "constructor"
    },
    {
      "inputs": [
        {
          "internalType": "address",
          "name": "owner",
          "type": "address"
        }
      ],
      "name": "OwnableInvalidOwner",
      "type": "error"
    },
    {
      "inputs": [
        {
          "internalType": "address",
          "name": "account",
          "type": "address"
        }
      ],
      "name": "OwnableUnauthorizedAccount",
      "type": "error"
    },
    {
      "anonymous": false,
      "inputs": [
        {
          "indexed": true,
          "internalType": "address",
          "name": "previousOwner",
          "type": "address"
        },
        {
          "indexed": true,
          "internalType": "address",
          "name": "newOwner",
          "type": "address"
        }
      ],
      "name": "OwnershipTransferred",
      "type": "event"
    },
    {
      "inputs": [
        {
          "internalType": "address",
          "name": "token",
          "type": "address"
        }
      ],
      "name": "balanceOf",
      "outputs": [
        {
          "internalType": "uint256",
          "name": "",
          "type": "uint256"
        }
      ],
      "stateMutability": "view",
      "type": "function"
    },
    {
      "inputs": [],
      "name": "owner",
      "outputs": [
        {
          "internalType": "address",
          "name": "",
          "type": "address"
        }
      ],
      "stateMutability": "view",
      "type": "function"
    },
    {
      "inputs": [],
      "name": "renounceOwnership",
      "outputs": [],
      "stateMutability": "nonpayable",
      "type": "function"
    },
    {
      "inputs": [
        {
          "internalType": "address",
          "name": "newOwner",
          "type": "address"
        }
      ],
      "name": "transferOwnership",
      "outputs": [],
      "stateMutability": "nonpayable",
      "type": "function"
    },
    {
      "inputs": [
        {
          "internalType": "address",
          "name": "token",
          "type": "address"
        },
        {
          "internalType": "address",
          "name": "to",
          "type": "address"
        },
        {
          "internalType": "uint256",
          "name": "amount",
          "type": "uint256"
        }
      ],
      "name": "withdraw",
      "outputs": [],
      "stateMutability": "nonpayable",
      "type": "function"
    }
  ],
  "bytecode": "0x608060405234801561000f575f5ffd5b5060405161088e38038061088e833981810160405281019061003191906101d7565b805f73ffffffffffffffffffffffffffffffffffffffff168173ffffffffffffffffffffffffffffffffffffffff16036100a2575f6040517f1e4fbdf70000000000000000000000000000000000000000000000000000000081526004016100999190610211565b60405180910390fd5b6100b1816100b860201b60201c565b505061022a565b5f5f5f9054906101000a900473ffffffffffffffffffffffffffffffffffffffff169050815f5f6101000a81548173ffffffffffffffffffffffffffffffffffffffff021916908373ffffffffffffffffffffffffffffffffffffffff1602179055508173ffffffffffffffffffffffffffffffffffffffff168173ffffffffffffffffffffffffffffffffffffffff167f8be0079c531659141344cd1fd0a4f28419497f9722a3daafe3b4186f6b6457e060405160405180910390a35050565b5f5ffd5b5f73ffffffffffffffffffffffffffffffffffffffff82169050919050565b5f6101a68261017d565b9050919050565b6101b68161019c565b81146101c0575f5ffd5b50565b5f815190506101d1816101ad565b92915050565b5f602082840312156101ec576101eb610179565b5b5f6101f9848285016101c3565b91505092915050565b61020b8161019c565b82525050565b5f6020820190506102245f830184610202565b92915050565b610657806102375f395ff3fe608060405234801561000f575f5ffd5b5060043610610055575f3560e01c806370a0823114610059578063715018a6146100895780638da5cb5b14610093578063d9caed12146100b1578063f2fde38b146100cd575b5f5ffd5b610073600480360381019061006e919061045d565b6100e9565b60405161008091906104a0565b60405180910390f35b610091610169565b005b61009b61017c565b6040516100a891906104c8565b60405180910390f35b6100cb60048036038101906100c6919061050b565b6101a3565b005b6100e760048036038101906100e2919061045d565b61022c565b005b5f8173ffffffffffffffffffffffffffffffffffffffff166370a08231306040518263ffffffff1660e01b815260040161012391906104c8565b602060405180830381865afa15801561013e573d5f5f3e3d5ffd5b505050506040513d601f19601f82011682018060405250810190610162919061056f565b9050919050565b6101716102b0565b61017a5f610337565b565b5f5f5f9054906101000a900473ffffffffffffffffffffffffffffffffffffffff16905090565b6101ab6102b0565b8273ffffffffffffffffffffffffffffffffffffffff1663a9059cbb83836040518363ffffffff1660e01b81526004016101e692919061059a565b6020604051808303815f875af1158015610202573d5f5f3e3d5ffd5b505050506040513d601f19601f8201168201806040525081019061022691906105f6565b50505050565b6102346102b0565b5f73ffffffffffffffffffffffffffffffffffffffff168173ffffffffffffffffffffffffffffffffffffffff16036102a4575f6040517f1e4fbdf700000000000000000000000000000000000000000000000000000000815260040161029b91906104c8565b60405180910390fd5b6102ad81610337565b50565b6102b86103f8565b73ffffffffffffffffffffffffffffffffffffffff166102d661017c565b73ffffffffffffffffffffffffffffffffffffffff1614610335576102f96103f8565b6040517f118cdaa700000000000000000000000000000000000000000000000000000000815260040161032c91906104c8565b60405180910390fd5b565b5f5f5f9054906101000a900473ffffffffffffffffffffffffffffffffffffffff169050815f5f6101000a81548173ffffffffffffffffffffffffffffffffffffffff021916908373ffffffffffffffffffffffffffffffffffffffff1602179055508173ffffffffffffffffffffffffffffffffffffffff168173ffffffffffffffffffffffffffffffffffffffff167f8be0079c531659141344cd1fd0a4f28419497f9722a3daafe3b4186f6b6457e060405160405180910390a35050565b5f33905090565b5f5ffd5b5f73ffffffffffffffffffffffffffffffffffffffff82169050919050565b5f61042c82610403565b9050919050565b61043c81610422565b8114610446575f5ffd5b50565b5f8135905061045781610433565b92915050565b5f60208284031215610472576104716103ff565b5b5f61047f84828501610449565b91505092915050565b5f819050919050565b61049a81610488565b82525050565b5f6020820190506104b35f830184610491565b92915050565b6104c281610422565b82525050565b5f6020820190506104db5f8301846104b9565b92915050565b6104ea81610488565b81146104f4575f5ffd5b50565b5f81359050610505816104e1565b92915050565b5f5f5f60608486031215610522576105216103ff565b5b5f61052f86828701610449565b935050602061054086828701610449565b9250506040610551868287016104f7565b9150509250925092565b5f81519050610569816104e1565b92915050565b5f60208284031215610584576105836103ff565b5b5f6105918482850161055b565b91505092915050565b5f6040820190506105ad5f8301856104b9565b6105ba6020830184610491565b9392505050565b5f8115159050919050565b6105d5816105c1565b81146105df575f5ffd5b50565b5f815190506105f0816105cc565b92915050565b5f6020828403121561060b5761060a6103ff565b5b5f610618848285016105e2565b9150509291505056fea2646970667358221220604d76812a56874ed870004577e465e3e10a9fb5a38c6c2e8dfffb62a5e9233964736f6c634300081c0033",
  "linkReferences": {},
  "deployedLinkReferences": {},
  "immutableReferences": {},
  "inputSourceName": "project/contracts/Treasury.sol",
  "buildInfoId": "solc-0_8_28-9317f657ce124dc881103e899554419caff68feb"
}